:020000040800F2
:10000000908E002401001008170F00084309100803
:10001000130F0008F908000845131008000000003D
:10002000000000000000000000000000AD02000819
:1000300001091008000000000903000869121008F7
:100040001B0010081B0010081B0010081B001008E4
:100050001B0010081B0010081B0010081B001008D4
:100060001B0010081B0010081B0010081B001008C4
:100070001B0010081B0010081B0010081B001008B4
:100080001B0010081B0010081B0010081B001008A4
:100090001B0010081B0010081B00100811090008A5
:1000A0001B0010081B0010081B0010081B00100884
:1000B0001B0010081B0010081B0010081B00100874
:1000C0001B0010081B0010081B0010081B00100864
:1000D0001B0010081B0010081B0010089D110008D1
:1000E0001B0010081B001008000000001B00100877
:1000F0001B0010081B0010081B0010081B00100834
:100100001B0010081B0010081B0010081B00100823
:10011000CD1210081B0010081B0010089D121008BB
:100120001B0010081B0010081B0010081B00100803
:100130001B0010081B0010081B0010081B001008F3
:1001400000000000000000000000000000000000AF
:100150001B0010081B0010081B0010081B001008D3
:100160001B0010081B0010081B0010081B001008C3
:100170001B0010081B0010081B00100800000000E6
:100180001B0010081B0010081B0010081B001008A3
:100190001B0010081B0010081B0010081B00100893
:1001A0001B0010081B0010081B0010081B00100883
:1001B0001B0010081B0010081B0010081B00100873
:1001C0001B0010081B0010081B0010081B00100863
:1001D0001B0010081B0010081B0010081B00100853
:1001E0001B0010081B0010081B0010081B00100843
:1001F0001B0010081B0010081B0010081B00100833
:100200001B0010081B0010081B0010081B00100822
:100210001B0010081B0010081B0010081B00100812
:100220001B0010081B0010081B0010080000000035
:100230001B0010081B001008000000001B00100825
:100240001B0010081B0010081B0010081B001008E2
:100250001B0010081B0010081B0010081B001008D2
:100260001B0010081B0010081B0010081B001008C2
:100270001B0010081B0010081B00100800000000E5
:100280001B0010081B0010081B00100800000000D5
:10029000000000001B001008DFF80CD000F078F818
:1002A00000480047D1180008908E00242C4B196894
:1002B0000868B0E8F04F80F30988BFF36F8F4FF004
:1002C000000080F3118870470000000008480068B3
:1002D000006880F308884FF0000080F3148862B64D
:1002E00061B6BFF34F8FBFF36F8F00DF00BF00BF5A
:1002F00008ED00E0DFF80C00016841F470010160D6
:10030000704700BF88ED00E0EFF30980BFF36F8F07
:10031000134B1A681EF0100F08BF20ED108A20E959
:10032000F04F106009B44FF0200080F31188BFF344
:100330004F8FBFF36F8F01F121FF4FF0000080F36B
:10034000118809BC19680868B0E8F04F1EF0100F5A
:1003500008BFB0EC108A80F30988BFF36F8F704735
:1003600078010024EFF305807047D2B201E000F875
:10037000012B491EFBD270470022F6E710B5134649
:100380000A4604461946FFF7F0FF204610BD00005C
:10039000064C074D06E0E06840F0010394E80700D2
:1003A00098471034AC42F6D3FFF77AFFB42900081F
:1003B000D429000810B500240021262001F0A4F95A
:1003C000044644F4A03444F4A0242246002126200C
:1003D00001F12EFA00222621362001F00CFA10BD80
:1003E00008B50020009004203449087001F1FEFC9B
:1003F0004FF0E04000F002FA012001F083F8401CC9
:1004000008B900BFFEE74FF0005000F0F7F90122F5
:100410004FF4FD616846FFF0ABFEBDF800002749D0
:10042000087008460078012806D002280DD003285D
:1004300014D0042824D11AE0214822490A68026015
:100440004A6842608968816023E01D481E490A6845
:1004500002604A684260896881601AE018481B4956
:100460000A6802604A6842608968816011E0144845
:1004700017490A6802604A6842608968816008E03A
:100480000F49134802680A6042684A6080688860C1
:1004900000BF00BF0A4801F10FF8032001F081F905
:1004A000012001F148F944F2340001F09BF944F2D3
:1004B000340001F184F9FFF77DFF08BD70020024CC
:1004C00082880024F8010024040200241002002481
:1004D000EC01002410B504464FF47A7104FB01F0DE
:1004E00000F00DF810BD002106E000BF00BF00BF06
:1004F00000BF00BF4A1C91B28142F6DB704708B5CD
:10050000014608464FF0E0221269009200BF421CEB
:1005100002B1401C06E04FF0E022126902F4803282
:1005200002B1401E0028F6D108BD000070B50024BD
:10053000002516E06006040E40210C4800F04EFA3B
:1005400000F000FA8021094800F113FB08B1601C9B
:10055000C4B24021054800F03CFA00F0F3F9681CF1
:10056000C5B2082DE6DB204670BD0000000402582D
:1005700010B580210A4800F031FA4021084800F007
:100580002DFA00F0DFF98021054800F022FA00F092
:10059000D9F94021024800F01CFA00F0D3F910BD4F
:1005A0000004025810B58021074800F012FA4021DB
:1005B000054800F013FA00F0C5F98021024800F068
:1005C0000DFA00F0BFF910BD0004025810B58021EB
:1005D0000D4800F003FA00F0B5F940210A4800F098
:1005E000FDF900F0AFF98021074800F1C2FA08B127
:1005F000012400E000244021034800F0EAF900F063
:10060000A1F9204610BD00000004025810B500BF3B
:1006100045F255501449086000BF0420486000BFEF
:100620004FF41670886000BF00BF4AF6AA20086029
:1006300000BF00BF4CF6CC40086000BF02E00BA03A
:1006400000F0E8FD00BF0848C06800F0070008B9E6
:10065000012000E000200128F1D100BF4AF6AA20C5
:100660000149086000BF10BD004800584253505F68
:10067000495744475F496E6974204552524F0D0AED
:100680000000000010B592B0282108A8FFF774FE02
:10069000182102A8FFF770FE544800BFC2B2544BA5
:1006A000D118020EC0F30424A2400B6823EA020210
:1006B000C0F30743C0F30424A3401A430A6000BFF9
:1006C00000BF4FF480504A49A43109680143484AA9
:1006D000A4321160114609680140019100BF00BFBA
:1006E00001204349943109680143414A9432116021
:1006F000114609680140019100BF00BFE02002904F
:100700000220039004900020059006900520079099
:1007100002A9384800F1AAF91020029001200390A4
:10072000022004900020059002A9324800F19EF9B1
:10073000002008904FF48000099007200A900020C4
:100740000B900C904FF080600D904FF0E0400E90B9
:1007500000200F904FF4800010900720119008A9FE
:10076000254800F05BFA00202349C96821F4601194
:100770000143214AD16000BF00BF1146896821F4BE
:10078000F8110143916000BF00BF1046C06840F0FF
:1007900080401146C86000BF084600F110FC00BF51
:1007A00000BF00BF00BF1021124800F015F900BFC4
:1007B0001148006940F002000F49086100BF00BF06
:1007C0000846006940F00100086100BF00BF08460C
:1007D000006940F01000086100BF00BF08460069D2
:1007E00040F00800086100BF12B010BD040C000703
:1007F0004C440258000002580030014010B5044635
:10080000074800F000FA00BF0548806820F0E0408B
:1008100020430349886000BF084600F1D0FB10BDAB
:10082000003001400149086070470000DC010024ED
:1008300000B587B0182101A8FFF79EFD022000F146
:1008400083F84FF440700190022002900390002042
:1008500004900820069001A9024800F107F907B0AA
:1008600000BD00000004025830B589B0202101A865
:10087000FFF782FDFFF0C8FFFFF0E2FF4FF480209A
:1008800000F074F800F0E4FC05460022072100F1B6
:10089000F9FB04462146272000F156FD272000F0F1
:1008A000C9FC4FF4E13002900020039004900590C1
:1008B0000C2006900020079008900120019001A9CB
:1008C0000C4800F08FFA0B4800F190FB094800F14A
:1008D0009BFB084800F081FA064800F190FB00BF3E
:1008E0000448806840F080000249886000BF09B079
:1008F00030BD00000048004000BFFEE70122034B6E
:100900001A701A4650601172704700008802002465
:1009100010B54FF48070094909680140814201D146
:10092000012100E0002111B10548006880474FF423
:1009300080700249086000BF10BD000088000058A8
:10094000E801002410B50A20FFF7CDFD10BD00001E
:1009500008B5054909680143034A11601146096851
:100960000140009100BF08BDE044025808B50549A8
:1009700009680143034A116011460968014000916A
:1009800000BF08BDE844025830B50E4B042404FBF8
:1009900001330D4CA04201D1002400E0082453F89B
:1009A000243023F0FF031343064C042505FB0144C8
:1009B000054DA84201D1002500E0082544F8253066
:1009C00030BD000000080240000002400A048261BD
:1009D00070470A0482617047816170478161704786
:1009E00030B5074C206022F01F04054D2D1D2C60F2
:1009F00043F0010444EA01242D1D2C6030BD0000A9
:100A000098ED00E00549086004490831096841F0A3
:100A10000101024A083211607047000098ED00E0C1
:100A200002480068C0F300207047000000440258EC
:100A300010B504469DED020A01EE104AB8EE412AB7
:100A400001EE101AB8EE411AC2EE011A01EE103A88
:100A5000B8EE411ADFED0C2A81EE222A01EE102AAF
:100A6000B8EE411A32EE011A21EE811AF0EE410A77
:100A7000B8EE401AC0EE811AF0EE610ABCEEE01A40
:100A800011EE100A10BD0000000000462DE9F84FDD
:100A900004460027B94600BF4848006800F003003C
:100AA0008046B8F1000F09D0B8F1010F10D0B8F1AD
:100AB000020F12D0B8F1030F14D114E000F08EF839
:100AC00028B100F15FFAC1083D4820FA01F70BE0B8
:100AD000FFF7A6FF00B13B4F06E000F077F800B14A
:100AE000394F01E000BF00BF00BF00202060606000
:100AF000A06000BF31480068C0F3051500BF00BF0B
:100B00002E4808300068C0F30800461C00BF00BF34
:100B10002A48001D006800F0010030B100BF2748DE
:100B20000C300068C0F3CC008146002D44D000BFDB
:100B30002248001D0068C0F3004078B100BF1F4884
:100B400008300068C0F34620401C82464B463246BF
:100B5000294600903846FFF76BFF206000BF17481A
:100B6000001D0068C0F3404078B100BF1348083052
:100B70000068C0F30640401C82464B463246294678
:100B800000903846FFF754FF606000BF0B48001D1F
:100B90000068C0F3804078B100BF084808300068A2
:100BA000C0F30660401C82464B4632462946009000
:100BB0003846FFF73DFFA060BDE8F88F2844025893
:100BC0000090D00300093D0040787D010248006894
:100BD000C0F34040704700000044025802480068DB
:100BE000C0F38000704700000044025802480068CB
:100BF000C0F3C0607047000000440258816941F0B2
:100C0000080181617047016821F0010101607047AE
:100C1000016821F001010160704700002DE9F041F9
:100C200005460C464FF00008284600F056F800280C
:100C300047D1216AA0690843A1680843A968224AEC
:100C400011400843A8606669676800BFE86800F063
:100C5000805070B9B6F1806F0BD1B7F5800F08D115
:100C60004FF48050296821F480510143296000BF6E
:100C700000BFE1686069084321690843E1690843EE
:100C800061680843216801F4C0210843E9680F4AFC
:100C900011400843E860286820F40060218801F4CE
:100CA000006108432860206AB0F5800F03D1606AB4
:100CB000286400BF00BF286D20F0010028654FF0B8
:100CC00001084046BDE8F081E0FFBF8FFFFF39D843
:100CD0000146486900F0010070470146086800F0CD
:100CE00001007047014691F830007047016841F4F7
:100CF000007101607047000010B5024613682C486F
:100D000082420ED0B2F1804F0BD02A48824208D0E6
:100D10002948824205D02948824202D0284882428E
:100D200004D123F070004C6840EA0403204882425A
:100D300017D0B2F1804F14D01E48824211D01E4805
:100D400082420ED01D4882420BD01D48824208D0FC
:100D50001C48824205D01C48824202D01B48824275
:100D600004D123F44070CC6840EA0403136088681F
:100D7000D06200BF0888906200BF0D4882420BD04D
:100D80000F48824208D00F48824205D00E48824266
:100D900002D00E48824203D1087C106300BF00BF1E
:100DA00000BF506940F00100506100BF012010BD3C
:100DB000000001400004004000080040000C00401A
:100DC000000401400040014000440140004801404F
:100DD000016821F0100101607047016841F01001C5
:100DE00001607047F8B504460D46002700262046EE
:100DF00000F114F900286ED12969A86808436969CF
:100E00000843E96908432168344A114008432060D7
:100E1000E868616821F440510143616000BFA8693E
:100E2000A16821F440710143A16000BF2C488442B5
:100E300004D12C4800F10AF8064636E02A488442DC
:100E400004D12A4800F102F806462EE028488442E0
:100E500004D12648FFF0FAFF064626E025488442E2
:100E600004D12248FFF0F2FF06461EE022488442E9
:100E700004D11E48FFF0EAFF064616E01F488442F0
:100E800004D11848FFF0E2FF06460EE01C488442F9
:100E900004D11648FFF0DAFF064606E019488442FE
:100EA00003D11248FFF0D2FF06465EB1686848B130
:100EB00001276868009031462046EB692A6800F1F6
:100EC000B3F800BF2868E16A21F00F0182B2114334
:100ED000E16200BF00BF3846F8BD0000F369FFEFD4
:100EE000001001400803000700440040080000070C
:100EF00000480040004C00400050004000140140F9
:100F000000780040007C00400146C869C0F3001032
:100F1000704700BFFEE77047014600BF0448006805
:100F200000F00F00034A105C21FA00F07047000047
:100F30001844025884280008014600BF044800688D
:100F400000F4E060000A034A125C21FA02F07047E4
:100F50001C440258842800083EB5002400BF1048F5
:100F6000006800F0380030B108280BD010280BD0F2
:100F7000182810D10AE000F105F8C108094820FA44
:100F800001F409E0084C07E0084C05E06846FFF76B
:100F90007DFD009C00E000BF00BF20463EBD00007C
:100FA000104402580090D00300093D0040787D01B4
:100FB00000BF00BF00BFBFF34F8F00BF00BF00BF27
:100FC00000BF00BF00BFBFF36F8F00BF00BF00BFF7
:100FD00000201449086000BF00BF00BFBFF34F8F5F
:100FE00000BF00BF00BF00BF00BF00BFBFF36F8FD7
:100FF00000BF00BF00BF0C48006840F400300A4941
:10100000086000BF00BF00BFBFF34F8F00BF00BF2D
:1010100000BF00BF00BF00BFBFF36F8F00BF00BFA6
:1010200000BF704750EF00E014ED00E02DE9F047FD
:1010300005460E4617469846002400F00BFA8146F6
:101040002A48FFF0C1FF10212948FFF7BFFC2748BD
:10105000FFF74CFE00BF15E000BF2448FFF0B9FFCA
:101060000028FAD0315D2148FFF0BDFF00BF1F48C6
:10107000FFF72EFE0028FAD000BF1C483030007861
:10108000601CC4B2AC42E7DB002416E000BF174886
:10109000FFF09FFF0028FAD018F804101348FFF063
:1010A000A2FF00BF1148FFF713FE0028FAD000BFCF
:1010B0000E4830300078601CC4B2BC42E6D30B4806
:1010C000FFF078FF0948FFF799FD0848FFF086FF19
:1010D0000648FFF79DFD10210548FFF055FD4846E5
:1010E00000F0A6F90020BDE8F087000000300140C4
:1010F000000002582448006840F47000224908604B
:101100002248006840F001002049086000201F4983
:10111000103108601D4800681D4908401B490860DF
:1011200000201A4918310860091D0860091D08606F
:10113000164928310860091D0860091D0860091D4D
:101140000860091D0860091D0860091D0860091D67
:1011500008600E48006820F480200C4908600020D8
:101160000A49603108600B4800686FF30F00B0F166
:10117000005F02D20120084908604FF00060024978
:10118000803908607047000088ED00E00044025894
:101190007FEDF6EA0010005C0881005110B5194897
:1011A000FFF037FFA0B100BF1648406AC0B2164931
:1011B000164A1278885415480078401C1349087064
:1011C0000846007801281BD10E48FFF706FE17E0FD
:1011D0000C48FFF799FE98B100BF1020094908623A
:1011E00000BF0846FFF7F4FD0848007840B1074803
:1011F00001780548064A12689047002003490870A4
:1012000010BD00000048004020860024E4010024B6
:10121000DC0100240FB4054B10B503A9044A029861
:1012200000F05CF810BC5DF814FB00006D181008AD
:10123000D8010024002809DB00F01F0201219140A1
:101240004209920002F1E022C2F80011704700004A
:1012500002480068C0F30220704700000CED00E077
:1012600002E008C8121F08C1002AFAD1704770476F
:10127000002001E001C1121F002AFBD1704710B508
:10128000002202212C2000F1E7FA022211462C2034
:1012900000F1E2FA10BD10B5002000F182F8002242
:1012A0000421362000F0A7FA10BD70B5044622468E
:1012B00004212D2000F09FFA032206212D2000F1A9
:1012C000CBFA002206212D2000F1C6FA0A212D209A
:1012D00000F01AFA0546284670BD00002DE9FF4FC0
:1012E00089B09B460446002506E025280BD05A46C7
:1012F0000B999047641C6D1C20780028F5D10DB027
:101300002846BDE8F08F0027B8460122474900E093
:10131000074314F8013F203B02FA03F00842F7D1DB
:1013200020782E2819D114F8010F47F004072A2835
:101330000ED06FF02F022078A0F1300109290CD8CF
:1013400008EB880102EB410100EB0108641CF2E7A5
:101350000A98641C50F8048B0A9020780028CED09C
:10136000642808D0692806D075281ED05A460B99E3
:1013700090476D1C58E00A994FF00A0901C90A917B
:10138000002802DA40422D2102E0390504D52B2144
:101390008DF82010012103E0F90704D02021F7E7A0
:1013A0008A4608AE0DE00021FAE70A994FF00A09D3
:1013B00001C90A91F7E74946FEF046FE303106F8CA
:1013C000011D0028F7D1ADEB060000F120097807D8
:1013D00001D44FF00108C84502DDA8EB090000E088
:1013E00000208046002706E008A85A46C05D0B99F9
:1013F00090476D1C7F1C5745F6DB04E030205A46B1
:101400000B9990476D1CB8F10001A8F10108F5DCBB
:1014100005E016F8010B5A460B9990476D1CB9F17F
:101420000001A9F10109F4DC641C65E70928010049
:10143000014671B11720002809DB00F01F030122CB
:101440009A4043099B0003F1E023C3F8002100BF49
:1014500000BF704710B5172000280FDB420992002B
:1014600002F1E022D2F8002100F01F040123A34082
:101470001A400AB1012202E0002200E000221146D7
:10148000E1B11720002817DB00F01F020123934071
:101490000B4A440942F8243000BF00BF00BFBFF32D
:1014A0004F8F00BF00BF00BF00BF00BF00BFBFF332
:1014B0006F8F00BF00BF00BF00BF00BF084610BD58
:1014C00080E100E070B505460021042000F01CF921
:1014D0000A4900EA010435B124F4FF7405F4FF70F1
:1014E000401C044301E024F0010405480068046145
:1014F00022460021042000F19BF970BDFFFF47F058
:10150000D40100242DE9F0410446002500270020E5
:101510007B49096808757A490968487578490968F6
:10152000C88277490968886275490968C862744940
:101530000968086372490968486300F0FAF871495C
:10154000884202D08817BDE8F08104F0020008B993
:1015500000F14AF904F0020010B104F0F80010B9EB
:101560000020FFF01EFF04220021242000F174F966
:1015700004F0020098B90420FFF797FE0746F8B27E
:10158000E0B1022212212D2000F166F95C480068CA
:10159000C08A40F480505A490968C8820EE0302160
:1015A000282000F0B1F8B0F1883F07D05448006817
:1015B000C08A40F4805052490968C88204F0020091
:1015C00028B104F0020058B104F0080040B11E2018
:1015D000FFF76BFE85B2280A49490968C87203E023
:1015E000002047490968C87204F0020030B905F0CC
:1015F0001F0000B91025E8B200F1E9F804F010006E
:1016000030B10620FFF751FE3D490968086003E04C
:1016100000203B490968086004F0200030B1072031
:10162000FFF743FE36490968486003E0002034496B
:101630000968486004F0400030B10820FFF735FE2B
:101640002F490968087203E000202D4909680872D3
:1016500004F0800030B10920FFF727FE284909680F
:10166000487203E0002026490968487204F002002D
:10167000D8B904F0010050B1FFF00DFF2048006818
:10168000C08A40F400601E490968C88218E005213C
:10169000362000F13DF806464FF6FF500640324630
:1016A0000521362000F0A7F80AE004F0040038B95C
:1016B00013480068C08A40F4006011490968C88274
:1016C0000120FFF06EFE00220A212C2000F1C4F858
:1016D0000021042000F018F8094909680861084849
:1016E00000680069C0F3014005490968887200215B
:1016F000082000F009F802490968C860002022E7C4
:10170000D40100243001CADEF8B505460E46002794
:10171000B1B2A8B26B46042200F011F8032404E031
:101720001DF8040000EB0727641E002CF8DA384689
:10173000F8BD10B500210846FFF7E6FF10BD2DE902
:10174000F84306460C461746984600252CB9F2B2D7
:1017500028466D1C0DF800201BE0F0B240F040025E
:1017600028466D1C0DF800207F2C05DCE2B22846CF
:101770006D1C0DF800200CE0E0B240F0800228461D
:101780006D1C0DF80020C4F3C71228466D1C0DF81F
:101790000020A8B243463A466946FFF0F1FCBDE896
:1017A000F88370B5054600212620FFF7ADFF0446FB
:1017B00024F47C2405F0010008B144F4802405F0F1
:1017C000020008B144F4A03422460021262000F192
:1017D0002FF870BD10B5044622460221032000F008
:1017E0000AF810BD10B50446224641F604012E2029
:1017F00000F001F810BDF8B505460E461446E0B2FB
:101800008DF8000020128DF80100B1B2A8B26B462D
:10181000022200F001F8F8BD2DE9F84306460C4617
:101820001746984600253CB9F0B240F080022846A1
:101830006D1C0DF800201BE0F0B240F0C0022846FD
:101840006D1C0DF800207F2C05DCE2B228466D1CD3
:101850000DF800200CE0E0B240F0800228466D1C3C
:101860000DF80020C4F3C71228466D1C0DF80020A7
:10187000A8B243463A466946FFF7D8FBBDE8F8836D
:1018800010B5002821D0114B0022001F196803E079
:10189000814203D80A4649680029F9D152B1136838
:1018A000841A9C4204D1006818441060104602E07B
:1018B000506000E0186039B102680B1A934203D1FE
:1018C0000B681A4402604968416010BD740200242C
:1018D0001CB5FEF037FDFFF00DF8FEF0ABFD032068
:1018E00002461A4B19684FF6FF031940184B0B4379
:1018F00043EA0221154B196000BFFEF069FCFEF0BF
:10190000E9FBFEF7BFFEFEF7AFFFFEF03FFFFEF084
:10191000A5FEFEF063FDFEF0A9FC0E48FEF782FF77
:101920000D48FEF081FDFEF75BFD6420FEF7D2FD61
:101930000A48012100238022CDE9001008A10B48AC
:1019400000F1DEFE00F1C6FB00201CBD0CED00E046
:101950000000FA05FD080008E108100894000024C2
:1019600073746172745F7461736B0000D91F000837
:10197000F0B50B30154D20F007010024144A0FE09C
:1019800003688B420BD38B4205D95E1A4318476814
:10199000C3E9006700E04368136002C004E0021D71
:1019A00010680028ECD12046002802D1286808B130
:1019B0000020F0BD064A07481060074A121A22F0BC
:1019C0000702C0E9002401202860D7E7780200243C
:1019D0007402002494880024908A00242DE9F041A8
:1019E00005460E461C4807681C480068001D00F0AC
:1019F00057FB50B91948006890F82C100120884016
:101A000017490968814316480160681C38B936B126
:101A100012480168091D134800F082FB1AE07C1986
:101A20000E4800684460BC4207D20C480168091D9A
:101A30000D48006800F184FA0CE008480168091DAF
:101A40000A48006800F17CFA09480068844201D223
:101A500007480460BDE8F0818C010024780100246F
:101A600090010024AC850024800100247C01002426
:101A7000A801002410B500F05FFB10480068D0B941
:101A80000F4800F14DFA0F4800F14AFA0C480E4990
:101A900008600C480D49086000220C210A2000F162
:101AA000B7FB064908600846006820B108A1034852
:101AB000006800F0E7FB00F069FB10BDBC010024EA
:101AC000C0850024D4850024B4010024B80100247A
:101AD000546D72510000000010B516E000F02CFBB0
:101AE0000C48C068C468201D00F0DAFA0A48006893
:101AF000401E0949086009480068401E07490860FF
:101B000000F044FB204600F05FF80448006800281D
:101B1000E4D110BD988500248801002484010024AC
:101B200070B504460D46206C70B1216CE06801442C
:101B3000E160D4E90210884201D32168E1602846BF
:101B4000226CE168FEF06EFA70BD2DE9F0410446AA
:101B50000F4615464FF00008A66B206C48B9206868
:101B600000282CD1A06800F1C5FE80460020A060AE
:101B700025E07DB93946226C6068FEF053FA216C8D
:101B8000606808446060D4E90101884217D3206886
:101B9000606014E03946226CE068FEF043FA216C84
:101BA000E068411AE1602168E068884203D2216C54
:101BB000A068411AE160022D01D106B1761E701CA9
:101BC000A0634046BDE8F08110B50446206B00F0EC
:101BD000FBFA204600F0F8FA10BD000030B54FF4D3
:101BE0000043174800F007042CB1C01D20F0070087
:101BF000134C041B1B1B0246124C22600024114D87
:101C00006C60D018083820F007000F4C20600024CA
:101C10000D4D2D686C600C4D2D682C601146441ADA
:101C20004C60094C24680C60084D4C682C60084DD1
:101C30004C682C604FF00044064D2C6030BD000015
:101C40009C0200246001002468010024700100242B
:101C50006C0100247401002470B5054600F06CFA94
:101C6000A86B08B9012400E0002400F08FFA204698
:101C700070BD70B5054600F05FFAA86BE96B88424D
:101C800001D1012400E0002400F080FA204670BD5C
:101C900070B586B08BE003980028FBDB059C60697B
:101CA00008B9012000E0002010B9201D00F0F8F96B
:101CB00002A800F0DDF8054603980A2875D2DFE88F
:101CC00000F009050739416306083A4200BF00BF2A
:101CD00000BF00BF94F8280040F0010084F82800FD
:101CE0000498A269811803462A462046FFF034FF73
:101CF000F8B12046216A884794F8280000F00400D3
:101D0000B8B1002000900498A16942180023194638
:101D1000204600F075FD064656B900BF202080F32E
:101D20001188BFF34F8FBFF36F8F00BF00BFFEE777
:101D300000BF3BE000BF94F8280020F0010084F8C9
:101D4000280033E000BF94F8280040F0010084F838
:101D500028000498A061A06908B1012000E00020DB
:101D600050B900BF202080F31188BFF34F8FBFF31D
:101D70006F8F00BF00BFFEE7A06941192B462A46BE
:101D80002046FFF0E9FE11E094F8280000F0020080
:101D900018B9204600F018FA05E094F8280020F061
:101DA000010084F8280001E0FFE700BF00BF002227
:101DB00003A90448006800F1A9FB00287FF46BAF79
:101DC00006B070BDBC010024F8B505460C4600F114
:101DD000CDF9684600F04CF80646009820BB44B99F
:101DE000B54206D800F05EFC31462846FFF0E0FE22
:101DF0001CE03CB10E480068006808B9012000E012
:101E000000200446A91B22460A48006800F1EEF8AB
:101E100000F048FC50B94FF0805007490860BFF30C
:101E20004F8FBFF36F8F01E000F03CFCF8BD000066
:101E3000B8010024BC01002404ED00E00A4909684F
:101E4000096809B9012100E0002121B14FF0FF31FB
:101E5000064A116006E004490968C968C868034A6F
:101E600041681160704700007C010024A801002433
:101E700070B5044600F184FC0546074800688542B9
:101E800004D2FFF0CFFE0120206001E0002020609E
:101E900001480560284670BDC40100242DE9F041C9
:101EA00004464FF0000800F161F94648006808B99F
:101EB000FFF794FE44480068204000286BD1D4B15D
:101EC000083404F00700B0B104F00700C0F10800C6
:101ED000044404F0070008B9012000E0002050B9D4
:101EE00000BF202080F31188BFF34F8FBFF36F8FA7
:101EF00000BF00BFFEE7002C4DD03448006884428C
:101F000049D8334E3046056801E02E462D68686892
:101F1000A04202D228680028F7D12A4800688542EA
:101F200039D0306800F10808286830606868001B04
:101F3000102819D92F1907F0070008B9012000E06F
:101F4000002050B900BF202080F31188BFF34F8FCD
:101F5000BFF36F8F00BF00BFFEE76868001B7860AB
:101F60006C603846FFF0C4FD184968680968081AB3
:101F7000164908600846006816490968884203D275
:101F800012480068134908600F49686809680843E7
:101F900068600020286000F085FB08F0070008B9A1
:101FA000012000E0002050B900BF202080F31188FC
:101FB000BFF34F8FBFF36F8F00BF00BFFEE74046F8
:101FC000BDE8F08168010024740100246C01002444
:101FD00060010024700100241CB5044600F0ACF838
:101FE00013481C2100234FF48062CDE9001011A199
:101FF000144800F185FB14481B2100234FF4807224
:10200000CDE9001011A1144800F17AFB13481A2100
:1020100000234FF48072CDE9001011A1134800F1A4
:102020006FFB1348006800F071F900F0AFF81CBDB9
:102030009800002472616E67696E675F7461736BEC
:1020400000000000CD1D10089C0000247573617213
:1020500074335F7461736B00611E1008A00000246C
:1020600075617274345F7461736B000075200008D1
:102070009400002400BF09480088401C07490880DC
:10208000084600884FF6FF71884203D14FF49770DD
:1020900002490880142000F00BF9ECE7A8000024A6
:1020A00001460A69D1E901309860D1E9010358601D
:1020B0005068884201D1886850600020086110682B
:1020C000401E106010687047124801680068401C8C
:1020D000104A1060B1F57A7F1ADD002011460860C1
:1020E0000D480068B0F57A7F03D94FF47A700A4939
:1020F000086009480068642148434FF47A71B0FBD6
:10210000F1F0C0F164000549086000200249086050
:1021100070470000540100245001002444010024B1
:1021200042684A6093688B60936859609160086167
:1021300003685B1C0360704700BF202080F3118898
:10214000BFF34F8FBFF36F8F00BF0E480068401C76
:102150000C49086008460068012812D10A48006846
:10216000C0B208B9012000E0002050B900BF202013
:1021700080F31188BFF34F8FBFF36F8F00BF00BF95
:10218000FEE77047C801002404ED00E00D48006838
:1021900050B900BF202080F31188BFF34F8FBFF3E9
:1021A0006F8F00BF00BFFEE706480068401E05496C
:1021B00008600846006820B9002080F3118800BF3D
:1021C00000BF7047C801002470B506463546002E92
:1021D0003FD0083D2C461F4960680968084008B197
:1021E000012000E0002050B900BF202080F31188BA
:1021F000BFF34F8FBFF36F8F00BF00BFFEE72068B4
:1022000008B9012000E0002050B900BF202080F371
:102210001188BFF34F8FBFF36F8F00BF00BFFEE782
:102220000C4960680968084098B1206888B9094974
:102230006068096888436060FFF098FF064960683D
:1022400009680844044908602046FFF051FC00F08A
:1022500029FA70BD740100246C01002400204FF0A5
:10226000E02108618861064800684FF47A71B0FB8C
:10227000F1F0401E4FF0E0214861072008617047EF
:1022800058010024024600200BE0084B53F8303080
:1022900033B9064B43F8301003EBC0035A6002E039
:1022A000401C0828F1D300BF704700009C82002426
:1022B00070B504460025D4B11248006808B9012061
:1022C00000E0002050B900BF202080F31188BFF348
:1022D0004F8FBFF36F8F00BF00BFFEE7FFF046FFD9
:1022E00000212046FFF77AFB00F0DCF905463DB9F6
:1022F0004FF0805004490860BFF34F8FBFF36F8FDA
:1023000070BD0000B001002404ED00E070B505468A
:10231000FFF712FF15B93048006800E02846044670
:10232000201DFFF7BDFE78B9E06A00EB80002B4965
:1023300051F8200040B994F82C1001208840284919
:102340000968814326480160A06A18B104F11800A9
:10235000FFF7A6FE23480068401C224908601E487B
:102360000068844209D1211D1F48FFF7D9FE1F488C
:102370000068401C1D49086009E01D480068401EB7
:102380001B4908602046FFF71FFCFFF757FDFFF7CA
:10239000FDFE18480068E8B10F480068844219D172
:1023A0001548006808B9012000E0002050B900BFBE
:1023B000202080F31188BFF34F8FBFF36F8F00BFD2
:1023C00000BFFEE74FF080500C490860BFF34F8F0D
:1023D000BFF36F8F70BD000078010024DC82002401
:1023E00090010024A4010024988500248401002485
:1023F0008801002494010024B001002404ED00E0D1
:102400001CB5524800685249884201D0012000E0C2
:10241000002050B900BF202080F31188BFF34F8FF8
:10242000BFF36F8F00BF00BFFEE748480068484910
:10243000491E884201D0012000E0002050B900BFB1
:10244000202080F31188BFF34F8FBFF36F8F00BF41
:1024500000BFFEE73F49084600780190FF200A468A
:1024600010700846007800909DF8000000F0F00021
:102470009DF80020904201D1012000E0002050B9D9
:1024800000BF202080F31188BFF34F8FBFF36F8F01
:1024900000BF00BFFEE79DF8000000F020002E4ABC
:1024A000107007202D4A106009E02C480068401E7B
:1024B0002A4A10609DF800004006000E00909DF82A
:1024C000000000F080008028EFD024480068C0F1B0
:1024D0000700042801D1012000E0002050B900BF0E
:1024E000202080F31188BFF34F8FBFF36F8F00BFA1
:1024F00000BFFEE7194800680002184A1060104645
:10250000008800F4E0601060124A019810700F48D3
:102510002030006840F470000C4920310860084603
:10252000006840F070400860FFF798FE00200C49FA
:102530000860FDF7DFFE0B48006840F040400949A5
:102540000860FDF7C3FE00201CBD000000ED00E0A8
:1025500071C20F4100E400E0CC010024D00100244E
:10256000C801002434EF00E070B505460E462C4645
:1025700054B900BF202080F31188BFF34F8FBFF301
:102580006F8F00BF00BFFEE7FFF7D6FDD4E90F1243
:10259000206801FB0200A0600020A063206860604A
:1025A000E06B401E226C216800FB0211E160FF20FD
:1025B00084F8440084F845009EB9206908B90120D8
:1025C00000E00020A8B904F1100000F01FF880B16D
:1025D0004FF0805009490860BFF34F8FBFF36F8FF2
:1025E00007E004F11000FFF09BFC04F12400FFF071
:1025F00097FCFFF7CBFD012070BD000004ED00E06B
:1026000001490868704700007801002470B506464B
:10261000F068C46854B900BF202080F31188BFF36C
:102620004F8FBFF36F8F00BF00BFFEE704F11800AC
:10263000FFF736FD15480068A8B9201DFFF730FDEB
:1026400094F82C100120884011490968084310496A
:102650000860E16A01EB81010E4A02EB8100211D55
:10266000FFF75EFD04E004F118010B48FFF758FD89
:102670000A49E06A0968C96A884204D9012501202B
:102680000749086000E00025284670BDB00100241D
:1026900090010024DC820024848500247801002439
:1026A0009C01002470B5002400263648006850B90B
:1026B00000BF202080F31188BFF34F8FBFF36F8FCF
:1026C00000BF00BFFEE7FFF737FD2E480068401E41
:1026D0002C4908600846006800284FD12A48006845
:1026E00000284BD024E02948C068C46804F11800D1
:1026F000FFF7D6FC201DFFF7D3FC94F82C10012027
:10270000884023490968084321490860E16A01EBD0
:102710008101204A02EB8100211DFFF701FD1E49C6
:10272000E06A0968C96A884202D301201B4908602F
:102730001648006808B9012000E000200028D2D027
:102740000CB1FFF77BFB1648056865B100BF00F1CF
:1027500027F810B10120114908606D1E002DF6D137
:1027600000200F4908600D48006838B10126300785
:102770000C490860BFF34F8FBFF36F8FFFF706FD63
:10278000304670BDB00100248801002484850024F7
:1027900090010024DC820024780100249C010024A4
:1027A0009801002404ED00E01CB50024FFF762F955
:1027B0000E48006858B10E481F2100234FF4807264
:1027C000CDE900100BA10D48FFF09AFF044654B963
:1027D00000BF202080F31188BFF34F8FBFF36F8FAE
:1027E00000BF00BFFEE720461CBD0000BC01002466
:1027F000C0010024546D722053766300091D100837
:102800002DE9FE4304460D4616461F46DDF8288096
:102810004FF0000954B900BF202080F31188BFF3A6
:102820004F8FBFF36F8F00BF00BFFEE714480068F3
:1028300010B3009501960294062D15DAFFF090FF73
:10284000022808D10023424669460D480068FFF07F
:102850000DFD814610E000231A46694608480068CD
:10286000FFF004FD814607E000233A46694604482C
:102870000068FFF0CFFD81464846BDE8FE830000BA
:10288000BC01002400000000010203040102030453
:1028900006070809102840587088A0B801000000F9
:1028A0000200000004000000060000000800000014
:1028B0000A0000000C0000001000000020000000D2
:1028C0004000000080000000000100000000010244
:1028D00003040005405C0000A05C0400C06C08001C
:1028E000805C0400E03F1E00E07D1E00070400093C
:1028F0000805400809104008080540081D040008A4
:102900001D0400081E265626BEBED8BC07A90225F7
:1029100070889B88401008000A001600010006001D
:102920000100020087008D003C001A3152001A336A
:102930009A001A351D011A376B003B31BE003B333C
:102940005E013B3596023B37000098599859EA5191
:102950008E421E45142E0080EA51F4283233E03AAC
:10296000703DE03AC235842BC2353233C235C235B0
:10297000AE47E03A5038A230503800001028405896
:102980007088A0B8010000000200000004000000F0
:1029900006000000080000000A0000000C00000013
:1029A0001000000020000000400000008000000037
:1029B00000010000D4290008000000247C0200006F
:1029C00074001008302A00087C020024148C0000D7
:1029D00070120008100E04022401121200010000FF
:1029E0000101010C4309090C92030C920724300DDC
:1029F000418800F0F003000000E000000CD0070068
:102A0000000300E10001012426612E000423A5A596
:102A1000000101AAAC30050090D003040165011249
:102A2000AA01610C040596E885002440A10100007C
:020000040810E2
:100000000648804706480047FEE7FEE7FEE7FEE7B2
:10001000FEE7FEE7FEE7FEE7FEE7FEE7F510000875
:100020009902000840EA01039B0703D009E008C9D0
:10003000121F08C0042AFAD203E011F8013B00F8AD
:10004000013B521EF9D2704730B50B4601460020E5
:100050002022012409E021FA02F59D4205D303FA8A
:1000600002F5491B04FA02F52844151EA2F101020B
:10007000F1DC30BD70B58D1810F8014B14F003029F
:1000800001D110F8012B231106D110F8013B03E038
:1000900010F8016B01F8016B521EF9D1ABB110F8E9
:1000A000012B04F00C048A1A0C2C03D0A2EB84124E
:1000B0009B1C08E010F8014BA2EB0422F8E712F8B1
:1000C000014B01F8014B5B1EF9D5A942D4D30020A6
:1000D00070BD000006490748B1FBF0F2521E4FF018
:1000E000E0235A6100229A6105221A6100BF70471D
:1000F0000084D71740420F002DE9F04107460D4616
:10010000164600F735FAC5F30221A02242EA410063
:1001100000F0ECF800F75AFA00B125E0E8B200F080
:10012000E5F800F753FA00B11EE000F721FAA1202C
:1001300000F0DCF800F74AFA00B115E000240CE00A
:1001400000F7F4F93855701EA04202D000F074F8A0
:1001500001E000F0B5F8601C84B2B442F0DB00F7B7
:1001600021FA0120BDE8F08100F71CFA0020F9E730
:100170002DE9F0470646884615466804070CB9463F
:10018000484601F7F5FB04463A4641462046FFF74C
:10019000B3FF8246BAF1000F05D1204601F770FB8C
:1001A0000020BDE8F08700200AE04100491C615CA6
:1001B00014F8102001EB022126F81010411CC8B2DF
:1001C000A842F2DB204601F75BFB0120E9E70000D3
:1001D00000B587B0182101A800F7CEF8042000F779
:1001E000B7FB4FF4807000F7B3FB4FF40070019041
:1001F00001200290022003900020049001A90C48E5
:1002000000F034FC4FF48070019001200290022035
:1002100003900020049001A9064800F027FC4FF449
:1002200080700104034A916100BF07B000BD000067
:10023000000802580020025810B580210A4800F733
:10024000C8FB00F77FFB4021074800F7C7FB00F71A
:1002500079FB4021044800F7BCFB00F773FB8021C9
:10026000014800F7BBFB10BD0004025800B587B081
:10027000182101A800F780F8022000F073FB02208B
:1002800000F070FB402001900120029002200390BA
:100290000120049001A9094800F0E8FB80200190AA
:1002A00001200290022003900120049001A903483C
:1002B00000F0DCFB00F776F907B000BD000402583F
:1002C00010B58021084800F789FB00F73BFB40216F
:1002D000054800F783FB00F735FB4021024800F793
:1002E00078FB00F72FFB10BD0004025870B50446E0
:1002F000002521E004F0800020B18021104800F7A3
:100300006DFB03E080210E4800F763FB00F71AFB4A
:1003100040210B4800F762FB00F714FB402108481E
:1003200000F757FB072D03D18021054800F756FB46
:100330006006040E681CC5B2082DDBDB70BD000032
:100340000004025810B500BF00BF00BF00BF00BFCF
:10035000BFF35F8F00BF00BF00BF00201C490860D3
:1003600000BF1C4B1A060021032000F739FB0320B5
:1003700000F748FB184B4FF0C0420021042000F763
:100380002FFB042000F73EFB124B12334FF050427C
:100390000021052000F724FB052000F733FB042093
:1003A00040F001010A4A116000BF00BF00BF00BF5A
:1003B000BFF34F8F00BF00BF00BF00BF00BF00BF33
:1003C000BFF36F8F00BF00BF00BF00BF10BD0000B4
:1003D00094ED00E0240002031E00000308B54FF472
:1003E00080700F49096821F4407101430C4A116083
:1003F00000BF40200A49883109680143084A883211
:100400001160114609680140009100BF00BF00BFA4
:100410000448006840F004000249086000BF08BDBD
:10042000544402580018024801490860704700000F
:10043000E001002400B502208349096821F007018A
:100440000143814A116000BF4FF440407E490C31A6
:10045000096821F4404101437B4A0C32116000BF1E
:1004600001E000F06DFA00BF77480C300068C0F37F
:1004700040300028F5D000BF7448006840F4803058
:100480007249086000BF01E000F05AFA00BF6F48EF
:100490000068C0F340400028F6D004206C49096889
:1004A00021F00F0101436A4A116000BF0220674931
:1004B0002831096821F003010143644A28321160A0
:1004C00000BF00BF101D006840F48030111D08609F
:1004D00000BF00BF0846006840F40030086000BF5D
:1004E00000BF0846006840F48020086000BF00BFDD
:1004F0000846006820F00100086000BF012009687C
:1005000021F00C0141EA8001121D116000BF0020A2
:100510001146096821F0020141EA4001116000BF63
:100520000520111F096821F47C7141EA0011121F96
:10053000116000BFA0204549303109686FF3080100
:10054000421E1143414A3032116000BF0220114661
:10055000096821F47E42411E42EA41213B4A303281
:10056000116000BF05201146096821F4FE02411EFA
:1005700042EA0141354A3032116000BF0220114683
:10058000096821F0FE42411E42EA01612F4A3032E1
:10059000116000BF00BF2D48006840F080702B49FB
:1005A000086000BF01E000F0CBF900BF27480068F9
:1005B000C0F340600028F6D00020244918310968B3
:1005C00021F470610143214A1832116000BF0820F4
:1005D0001146096821F00F010143116000BF40205E
:1005E000111D096821F070010143121D116000BF47
:1005F00000011146096821F4E0610143116000BF68
:100600004020111D096821F070010143121D116085
:1006100000BF03200D491031096821F00701014393
:100620000A4A1032116000BF01E000F089F900BFF2
:1006300006481030006800F038001828F5D1054849
:100640000549086000BD00000C48025800440258EB
:10065000002000520084D717580100242DE9F041F2
:1006600086B0FFF6D3FF142101A8FFF685FE2020F7
:10067000424909680143414A116011460968014035
:10068000009100BF00BF42F20F70ADF804000020DF
:10069000029044F61F6003900020049001A938489E
:1006A00000F72AFB00BF3648006840F0800034495C
:1006B000086000BF3721334B1B68C3F302200624B8
:1006C00000250346C3F1070CBCF1040F02D94FF01B
:1006D000040C01E0C3F1070C674603F1040CBCF104
:1006E000070F02D24FF0000C01E0A3F1030C6646A5
:1006F0004FF0010C0CFA07FCACF1010C0CEA040CF5
:100700000CFA06FC4FF0010808FA06F8A8F10108F7
:1007100008EA05084CEA080200BF002904DB1007BC
:10072000030E1948435407E01007040E15480C3017
:1007300001F00F031B1FC45400BF3720002809DB42
:1007400000F01F02012191404209920002F1E022D3
:10075000C2F8001100BF00BF0948006840F0010066
:100760000749086000BF00BF0846C06840F00100AC
:10077000C86000BF06B0BDE8F0810000E844025840
:10078000001400400CED00E000E400E030B589B05A
:10079000202101A8FFF6F0FD00F74AF84FF40020F1
:1007A00000F7E4F800F754FD05460022092100F0A7
:1007B00069FC04462146342000F0C6FD342000F7D1
:1007C00039FD4FF4E1300290002003900490059031
:1007D0000C2006900020079008900120019001A9AC
:1007E000084800F7FFFA074800F000FC054800F051
:1007F0000BFC044800F7F1FA024800F000FC09B0D5
:1008000030BD0000004C004000B587B0182101A8A1
:10081000FFF6B2FD042000F097F84FF4406001901D
:10082000022002900390002004900720069001A966
:10083000024800F01BF907B000BD00000008025894
:1008400010B590B001202149096801431F4A116089
:10085000114609680140009100BF00BF1C480121FA
:1008600002461C4B5B5CD35823F48023194C645C18
:10087000135100BF1848019018480290402003907F
:1008800000200590880206900020089007900490B0
:10089000099008040B9000200C900D902E200A90D7
:1008A00000200E900F9001AA094800F069F808484E
:1008B00001210246074B5B5CD35823F00103054C32
:1008C000645C135100BF10B010BD0000D844025842
:1008D000000002407C29000828480040B08700241E
:1008E0000122034B5A721A46D060117470470000FF
:1008F0008802002410B500F75BFB00F0F3FB10BD8D
:100900007047000010B501F77BFE0949096888426D
:100910000CD101F03BFF07490968401A06490860FD
:1009200006480068096808440449086010BD0000D2
:1009300040010024480100244C01002450010024FF
:10094000704700BFFEE7000008B50549096801438C
:10095000034A1160114609680140009100BF08BDBB
:10096000E044025808B5054909680143034A11608B
:10097000114609680140009100BF08BDE0440258DB
:100980002DE9F04104460D461646F06A00B100BF5D
:10099000D6E9021211433269114372691143B269F7
:1009A0001143F2691143B26A41EA020021462D4A1D
:1009B000525D8A582C4B1A4002432A4B5B5DCA5049
:1009C00000BFF06A48B3D6E90B012246254B5B5DB8
:1009D00013445B6923F0070340EA01073B43214FBF
:1009E0007F5D17447B6100BF706B21461D4A525DDD
:1009F0008A5822F0C07202431A4B5B5DCA5000BF96
:100A0000B06B00BF174A525D8A5822F4C0020243FD
:100A1000144B5B5DCA5000BF00BF70682146114A8D
:100A2000525D0A44D06000BF306800BF0D4A525D7D
:100A30000A44906000BF306A00BF0A4A525D0A440F
:100A400052686FF30F020243064B5B5D0B445A6022
:100A500000BF29462046726AFFF696FF0120BDE8D6
:100A6000F0810000BC2910081F80FCFFF0B5034690
:100A70000A46106890FAA0F0B0FA80F463E001250D
:100A8000A540106800EA050100295BD050681D6888
:100A900001FB01F606EB4606B54301FB01F64643B2
:100AA00035431D6000BF5068012802D050680228FD
:100AB0000DD190689D6801FB01F606EB4606B54333
:100AC00001FB01F6464335439D6000BF00BF10693E
:100AD000DD6801FB01F606EB4606B54301FB01F6B6
:100AE00046433543DD6000BF506802282AD1FF2904
:100AF00012D850691E6A01FB01F54D434D43C5EB09
:100B0000051526EA050501FB01F64E434E43464313
:100B100035431D6200BF15E050690D0A6D430E0A92
:100B200075430E0A7543C5EB05165D6AB5430E0A9B
:100B300076430F0A7E430F0A7E43464335435D6288
:100B400000BF00BF641C1068E040002897D15068C7
:100B5000012802D05068022809D1D56810685E6863
:100B6000864300FB05F73E435E6000BF00BF0120E7
:100B7000F0BD024610690840884201D1012070474B
:100B80000020FCE7816170478161704710B5014624
:100B9000C8B2074BC218080EC1F30424A040136862
:100BA0001840C1F30423D84041EA004010BD0000C2
:100BB0004C4402582DE9F84F04460027B94600BFBF
:100BC0004848006800F003008046B8F1000F09D0E3
:100BD000B8F1010F10D0B8F1020F12D0B8F1030F25
:100BE00014D114E0FFF6FAFF28B100F0CBF9C108E8
:100BF0003D4820FA01F70BE0FFF612FF00B13B4F32
:100C000006E0FFF6E3FF00B1394F01E000BF00BF8F
:100C100000BF002020606060A06000BF3148006815
:100C2000C0F3053500BF00BF2E4810300068C0F388
:100C30000800461C00BF00BF2A48001D0068C0F322
:100C4000001030B100BF274814300068C0F3CC005A
:100C50008146002D44D000BF2248001D0068C0F32B
:100C6000C04078B100BF1F4810300068C0F3462074
:100C7000401C82464B463246294600903846FFF6D5
:100C8000D7FE206000BF1748001D0068C0F3005069
:100C900078B100BF134810300068C0F30640401C14
:100CA00082464B463246294600903846FFF6C0FE43
:100CB000606000BF0B48001D0068C0F3405078B171
:100CC00000BF084810300068C0F30660401C824630
:100CD0004B463246294600903846FFF6A9FEA060F2
:100CE000BDE8F88F284402580090D00300093D0069
:100CF00040787D012DE9F84F04460026B14600BF3B
:100D00004A48006800F003008046B8F1000F09D09F
:100D1000B8F1010F10D0B8F1020F12D0B8F1030FE3
:100D200014D114E0FFF65AFF28B100F02BF9C108E6
:100D30003F4820FA01F60BE0FFF672FE00B13D4E8F
:100D400006E0FFF643FF00B13B4E01E000BF00BFED
:100D500000BF002020606060A06000BF33480068D2
:100D6000C0F3055500BF00BF304818300068C0F31D
:100D70000800471C00BF00BF2C48001D0068C0F3DE
:100D8000002030B100BF29481C300068C0F3CC00FF
:100D90008146002D47D0EEB300BF2448001D0068F7
:100DA000C0F3805078B100BF204818300068C0F30D
:100DB0004620401C82464B463A4629460090304623
:100DC000FFF636FE206000BF1848001D0068C0F323
:100DD000C05078B100BF154818300068C0F3064015
:100DE000401C82464B463A46294600903046FFF664
:100DF0001FFE606000BF0D48001D0068C0F300606A
:100E000040B100BF094818300068C0F30660401CBC
:100E1000824600E007E04B463A46294600903046BD
:100E2000FFF606FEA060BDE8F88F000028440258D7
:100E30000090D00300093D0040787D010248006821
:100E400000F4706070470000184402582DE9FE431A
:100E50000446002500BF2046FFF798FE434A811A4A
:100E6000904266D018DC424AA0EB020190424DD07D
:100E70000BDCA0F1E060A0F1080098B3B0F5407F72
:100E80001DD0B0F5803F6BD141E0B1F57D4F47D02B
:100E9000B1F5803F64D142E0364A881A914252D07F
:100EA00006DCB1F5407F43D0B1F5803F58D14BE02F
:100EB000B0F57D4F4ED0B0F5803F51D149E000F7FD
:100EC0004BF88046FFF7BAFFC0F303202A49085CBD
:100ED00028FA00F7384600F71FF8064600F72CF806
:100EE00005463EE0FFE700F737F88046FFF7A6FF2C
:100EF000C0F303202049085C28FA00F7384600F7C1
:100F00000BF8064600F0DEF805462AE000BFFFF6C3
:100F10006DFE18B16846FFF74DFE019D21E000BF50
:100F200000F040F818B16846FFF7E4FE019D18E0B4
:100F300000BFFFF653FE28B100F024F8C1080F48A7
:100F400020FA01F50DE000BFFFF66AFD00B10C4D7F
:100F500007E000BF00F01EF808B14FF4004500E0C4
:100F600000BF00BF2846BDE8FE830000080003075D
:100F70000803010700030100842800080090D00343
:100F800000093D000248006800F0180070470000AA
:100F90000044025802480068C0F340007047000057
:100FA0007044025802480068C0F340707047000067
:100FB00000440258816941F0100181617047016865
:100FC00041F0010101607047016841F001010160D9
:100FD000704701464869C0F340007047016841F41A
:100FE00080610160704780F820107047416821F4EB
:100FF00090414160816821F02A0181607047016859
:1010000041F0010101607047016841F02001016079
:1010100070470146C869C0F3401070470146086830
:1010200000F0010070470000F0B51D46059C0B2A3A
:1010300025D8B5F5004F15D1D7B2DFF844C05CF81C
:101040002770B1FBF7F77F0007EB5407B7FBF4F706
:10105000BBB24FF6F07703EA0706C3F342073E43FD
:10106000C6600CE0D7B2DFF818C05CF82770B1FB9F
:10107000F7F707EB5407B7FBF4F7BFB2C760F0BD53
:10108000C4291008F0B503460C4603F00701C1F16E
:101090000700042801D9042001E0C1F10700064639
:1010A000081D072801D2002000E0C81E05460120C7
:1010B000B040401E2040A8400127AF407F1E17408F
:1010C0003843F0BD014600BF0448006800F07000DE
:1010D0000009034A125C21FA02F070471C440258CE
:1010E0008428000810B50023234C236000BF00BFF4
:1010F00000BFBFF34F8F00BF00BF00BF231F1868A2
:10110000C0F34E3100BFC0F3C90200BF43F6E07325
:1011100003EA41134FF0404404EA82742343174C1E
:10112000236000BF00BF131EA2F10102EED10B1E0F
:10113000A1F10101E7D100BF00BF00BFBFF34F8F96
:1011400000BF00BF00BF0C4B703B1B6843F48033F3
:10115000094C703C236000BF00BF00BFBFF34F8F3E
:1011600000BF00BF00BF00BF00BF00BFBFF36F8F55
:1011700000BF00BF00BF10BD84ED00E060EF00E0E5
:101180002DE9F04705460E4617469846002400F71D
:1011900061F981462A48FFF717FF10212948FFF619
:1011A00015FC2748FFF6A2FD00BF15E000BF24484C
:1011B000FFF70FFF0028FAD0315D2148FFF713FF3A
:1011C00000BF1F48FFF684FD0028FAD000BF1C486E
:1011D00030300078601CC4B2AC42E7DB002416E07B
:1011E00000BF1748FFF7F5FE0028FAD00021144889
:1011F000FFF7F9FE00BF1248FFF66AFD0028FAD09B
:101200000F48FFF66FFD08F80400601CC4B2BC4232
:10121000E6D30B48FFF7CEFE0948FFF6EFFC08487F
:10122000FFF7DCFE0648FFF6F3FC10210548FFF748
:10123000ABFC484600F7FCF80020BDE8F087000052
:10124000003001400000025810B501F7D9F90449F7
:101250000968884203D101F099FA0249086010BD7B
:10126000400100244801002410B500BF202080F375
:101270001188BFF34F8FBFF36F8F00BF01F090FA5B
:1012800018B14FF080500449086000BF002080F37F
:10129000118800BF10BD000004ED00E000BF094848
:1012A000006900F0010030B100BF4AF6AA200649EB
:1012B000086000BF00BF00BF6FF001000149086176
:1012C00000BF7047001400400048005810B519488E
:1012D000FFF79FFEA0B100BF1648406AC0B2164992
:1012E000164A1278885415480078401C1349087033
:1012F0000846007801281BD10E48FFF66EFD17E066
:101300000C48FFF601FE98B100BF102009490862A1
:1013100000BF0846FFF65CFD0848007840B107486A
:1013200001780548064A1268904700200349087072
:1013300010BD0000004C0040E8860024E5010024B8
:10134000E001002400BFFEE710B5002804DB0A0717
:10135000130E054A135406E00A07140E034A00F060
:101360000F031B1FD45410BD00E400E018ED00E093
:1013700010B504466D2240F606012E2000F06CFAEE
:101380003CB140F2076241F606012E2000F733FA25
:1013900006E041F2076241F606012E2000F72BFA23
:1013A00010BD38B504466B4602220021362000F7F6
:1013B000C6F90F2C5FD2DFE804F012081B5E5E5EF8
:1013C0005E24335E5E40474E570000208DF80000DB
:1013D0009DF8010000F0FE008DF801004CE09DF842
:1013E000000000F0FC0040F001008DF8000043E038
:1013F0009DF8000000F0FC0040F002008DF80000B5
:101400003AE09DF8000000F0B30040F048008DF88D
:1014100000009DF8010040F080008DF801002BE0F5
:101420009DF8000000F0B3008DF800009DF8010069
:1014300000F07F008DF801001EE09DF8010040F0F3
:1014400002008DF8010017E09DF8010000F0FD009A
:101450008DF8010010E09DF8000000F0CF0040F092
:1014600020008DF8000007E001208DF80000032027
:101470008DF8010000E000BF00BF6B460122002193
:10148000362000F7C9F90DF101030122114636207B
:1014900000F7C2F938BD10B50E20FFF782FF4FF4F8
:1014A000004206212D2000F7A6F90120FFF612F8D0
:1014B0000120FFF776FF10BD2DE9F05F04464FF0E5
:1014C0000009CA4625786079854931F8108060782E
:1014D000401EC6B2042D01D0072D01D1012000E02D
:1014E00000208346E07950B97E480068006940F4E6
:1014F00080007C49096808614FEAE80807E07948FC
:101500000068006920F48000764909680861207A43
:1015100074490968887273480068006920F4403093
:101520007049096808616F4800680069217A4FF4C2
:10153000403202EA014108436A4909680861694882
:10154000006800210269042000F072F9424642F668
:1015500004012E2000F74FF93046FFF709FF6248DB
:10156000405D624951F8202007212B2000F060F9EE
:101570005D48405D5E490A5C0B212B2000F06CF950
:101580005C4810F80B200B21282000F065F9564824
:10159000405D594951F820200C21282000F048F9DD
:1015A000E079564901EB8000A17930F81120022141
:1015B000272000F720F9524830F816200421272070
:1015C00000F719F9E07928B964220621272000F7ED
:1015D00012F917E0A07804280AD11022062127204A
:1015E00000F709F910222621272000F035F909E03B
:1015F00020220621272000F7FEF828222621272076
:1016000000F02AF93F4800EB0610E17850F821205D
:101610000821272000F00CF9608910B941F241003F
:10162000608162892021272000F7E5F836480C21E7
:101630000268232000F0FCF83348001D30F8162023
:101640000421232000F7D7F8A07950B1E0792F4981
:101650000A5C0021212000F0FFF84FF003094FF051
:10166000010A05F00F00F02101EA05110843617835
:101670004FF4402202EA81410843910001EA0951F6
:1016800008434FF4003101EA4A41084321794FF001
:10169000F86202EA815108436179520102EAC161AC
:1016A00040EA01073A4600211F2000F0C1F8A07867
:1016B000617808430004E17940EA4130094909684A
:1016C000C860084800680021C268082000F0B0F82F
:1016D000422200210D2000F0BFF8BDE8F09F00007D
:1016E00048290008D4010024CC280008EC28000870
:1016F000042900080A290008D4280008182900082D
:1017000024290008282900080C29000814290008A9
:10171000F8B504460D460026A9B2A0B26B460222D7
:1017200000F70DF89DF800009DF8011000EB012076
:1017300086B23046F8BD70B5054605F0010080B3AD
:1017400000212620FFF6E0FF044624F4705444F400
:10175000A05422460021262000F06AF800213620FD
:10176000FFF6D2FF044644F404042246002136204A
:1017700000F05EF84FF4887405F0020008B144F4FC
:10178000702422462821362000F052F805F002008D
:10179000A0B124F4702422462821362000F048F815
:1017A0000CE0FFE700212620FFF6AEFF044624F4FC
:1017B000705422460021262000F03AF870BD10B582
:1017C000044622460021182000F715F810BD70B518
:1017D000044604F01F0040F060052A460E212B202D
:1017E00000F03AF870BD000010B5FFF654FD00227D
:1017F00011462C20FFF6FFFF002206212C2000F0CE
:101800002BF8FFF63CFD00220321362000F024F8DF
:101810000120FEF65FFEF0220321362000F01CF8C6
:10182000002002490968487510BD0000D401002459
:10183000F8B506460F461446002504E0E0B20DF860
:101840000500240A6D1C042DF8DBB9B2B0B26B465A
:101850000422FFF6E1FFF8BD37B504460D46A9B2F4
:10186000A0B202AB0122FFF6D7FF3EBD00BF054A82
:10187000126802F04002002AF9D0C2B2014B0C33C8
:101880001A6070471C4800400148006880B27047E9
:101890004401002410B5044600F74EFC24480068BB
:1018A000401C234908602348006840B9214804606F
:1018B0000846006801280DD100F0E6F80AE01E484D
:1018C000006838B91B480068C06AE16A884201D8DC
:1018D0001848046019480068401C18490860084608
:1018E0000068A06494F82C1001208840144909680D
:1018F000084313490860E16A01EB8101114A02EBD8
:101900008100211D00F70CFC00F740FC0A4800682C
:1019100068B108480068C06AE16A884207D24FF09F
:10192000805009490860BFF34F8FBFF36F8F10BD20
:10193000880100247801002494010024A4010024DB
:1019400090010024DC82002404ED00E00146084AF6
:10195000126812680AB9012200E000220A600A68CF
:1019600022B9034A1268D268106800E0002070476C
:10197000B401002400BF00F7AFF807480068012851
:1019800007D94FF0805005490860BFF34F8FBFF370
:101990006F8F00F0B9FAEEE7DC82002404ED00E07E
:1019A0002DE9F04106460D4617469846069C0DB9AE
:1019B000246000E02760E66325640121204600F7EB
:1019C000D3FD84F84C80BDE8F0812DE9F05F8246BC
:1019D0000E4690469B460A9F0C9C4FEA8801A52222
:1019E000206BFEF6C2FCA8F10100216B01EB80091F
:1019F00029F0070909F0070008B9012000E00020DC
:101A000050B900BF202080F31188BFF34F8FBFF380
:101A10006F8F00BF00BFFEE786B1002507E0715D54
:101A200004F134004155705D00B902E06D1C102DC9
:101A3000F5D300BF00214320015502E0002084F8C7
:101A40003400202F00D31F27E76227650020606540
:101A5000201D00F072FA04F1180000F06EFA246103
:101A6000C7F12000A06164620020A06584F85C00DA
:101A70005A465146484600F093F920600B9808B149
:101A80000B980460BDE8F09F10B5002407E004EB5C
:101A900084010F4A02EB810000F042FA641C202C02
:101AA000F5D30C4800F03CFA0B4800F039FA0B482B
:101AB00000F036FA0A4800F033FA0A4800F030FA2B
:101AC00004480949086004480849086010BD00003E
:101AD000DC8200245C850024708500248485002439
:101AE00098850024AC8500247C010024800100241A
:101AF00010B50146164800E0006803688B42FBD32E
:101B00000246436813448B4204D143684C68234423
:101B1000436001460A464B6813440468A34211D14E
:101B20000C4C03682468A34208D04B6804686468BE
:101B300023444B6003681B680B6005E0054B1B6882
:101B40000B6001E003680B60884200D0016010BDAB
:101B500060010024680100242DE9F04104460D468F
:101B600016461F464FF0000865602461B5420CD848
:101B7000F01BA169884202D34FF0010811E0211D3A
:101B80000948006800F0DCF90BE0BE4204D2BD4217
:101B900002D34FF0010804E0211D0448006800F062
:101BA000CFF94046BDE8F081B8010024B40100241B
:101BB000F8B505460F461A480068C068C468201D7D
:101BC00000F76EFA94F8280000F00400E8B1A0696C
:101BD00041192B463A462046FFF7BEFFD8B10020F8
:101BE00003462A4601460090204600F709FE0646B5
:101BF00056B900BF202080F31188BFF34F8FBFF389
:101C00006F8F00BF00BFFEE705E094F8280020F0CA
:101C1000010084F828002046216A8847F8BD0000AA
:101C2000B40100242DE9F84334E025480068C06879
:101C3000056823480068C068C468201D00F730FAB2
:101C40002046216A884794F8280000F0040008B371
:101C5000A0694619AE4207D966602461211D184863
:101C6000006800F06DF915E0002003462A460146A1
:101C70000090204600F7C4FD074657B900BF20205A
:101C800080F31188BFF34F8FBFF36F8F00BF00BF8A
:101C9000FEE700BF0A480068006808B9012000E0BC
:101CA00000200028C1D00648D0F800800548006810
:101CB000034908600348C0F80080BDE8F8830000CD
:101CC000B4010024B80100240E480068401C08B983
:101CD000012000E0002050B900BF202080F31188CF
:101CE000BFF34F8FBFF36F8F00BF00BFFEE700BF92
:101CF000202080F31188BFF34F8FBFF36F8F00BF99
:101D000000BFFEE7C801002408B500BF6846FFF722
:101D10001DFE04462046009900F756F8FFF6B8FF6E
:101D2000F4E770B5044600F707FA94F9455010E05F
:101D3000606A08B9012000E0002038B904F12400ED
:101D400000F764FC18B100F083F900E003E0681EBE
:101D500045B2002DECDC00BFFF2084F8450000F701
:101D600015FA00F7E9F994F9445010E0206908B930
:101D7000012000E0002048B904F1100000F746FC03
:101D800008B100F065F9681E45B200E001E0002DE1
:101D9000ECDC00BFFF2084F8440000F7F7F970BDC9
:101DA000001F4FF080730360001F21F001030360E8
:101DB000001F054B036014380260001F6FF0020320
:101DC0000360203870470000C91C10080024182048
:101DD000FFF678FB4FF2F000FFF6FCFC00BF601C42
:101DE000C4B2012000F764FAF9E7000000B587B03B
:101DF000182101A8FEF6C0FA4FF480701649096850
:101E00000143154A1160114609680140009100BF65
:101E100000BF2020019001200290022003900020AA
:101E2000049001A90D48FEF721FE0220FEF652FBA8
:101E300020210A48FEF6CAFD2020019003200290CE
:101E40000220039001A90548FEF710FE0220FEF6CD
:101E500041FB07B000BD0000E044025800200258DA
:101E6000002400BF1A48007818B1194800780228E9
:101E70000FD11848017818A0FFF6CCF91448007863
:101E8000022803D1C1011948FEF77CFE0120104948
:101E90000870601CC4B2032C0CD14FF400711448BC
:101EA000FEF770FEFFF7F0FC0546294611A0FFF68D
:101EB000B1F908E0062C06D14FF4007001040C4A79
:101EC000916100BF0024C82000F7F2F9CAE70000C2
:101ED000A4000024700200244368616E6E656C5F8C
:101EE0004E756D203D2025640D0A0000002002582B
:101EF00000080258435055205573616765203D2006
:101F0000256425250D0A000010B50448006818B99D
:101F100000F776FB0149086010BD00004001002475
:101F200000F1080141604FF0FF31816000F10801CC
:101F3000C1600161002101607047002101617047AB
:101F400010B502460B685C1C0CB9106907E002F181
:101F5000080000E04068446824689C42FAD944685C
:101F60004C604C68A160886041600A611468641C20
:101F7000146010BD70B5FEF6F5F90446102C16D3AA
:101F800004F1E02090F8F05315480078854201DB19
:101F9000012000E0002050B900BF202080F311880C
:101FA000BFF34F8FBFF36F8F00BF00BFFEE70D4839
:101FB000006800F4E0600C490968884201D80120FB
:101FC00000E0002050B900BF202080F31188BFF34B
:101FD0004F8FBFF36F8F00BF00BFFEE770BD0000E3
:101FE000CC0100240CED00E0D00100242DE9F041EB
:101FF00005460E4617462C4600F79EF894F9440015
:10200000401C10B9002084F8440094F94500401C9D
:1020100010B9002084F8450000F7B8F8A06B28B983
:102020003A46314604F1240000F034F82046FFF728
:1020300078FEBDE8F08100000349096801600349AA
:102040000968416070470000A00100248C01002451
:1020500001200149086070479C01002470B50446C6
:102060000D4654B900BF202080F31188BFF34F8F75
:10207000BFF36F8F00BF00BFFEE70548016818314E
:102080002046FFF75DFF01212846FFF6A7FC70BD43
:102090007801002470B505460E46144655B900BFB8
:1020A000202080F31188BFF34F8FBFF36F8F00BFE5
:1020B00000BFFEE7064801681831284600F730F8EF
:1020C0000CB14FF0FF3621463046FFF687FC70BD5D
:1020D000780100241CB51E4800210B468022CDE962
:1020E00000101CA11D4800F00BFB0446012C02D17E
:1020F00000F75AFB0446012C17D100BF202080F3C3
:102100001188BFF34F8FBFF36F8F00BF4FF0FF30C9
:102110001349086001201349086000201249086033
:10212000FFF792F800F76CF910E0601C08B101208D
:1021300000E0002050B900BF202080F31188BFF3D9
:102140004F8FBFF36F8F00BF00BFFEE71CBD0000C5
:10215000AC01002449444C450000000075191008EA
:10216000A8010024940100248C0100240248006886
:10217000401C014908607047B001002410B51F4899
:10218000006818B101201E49086035E000201C4994
:102190000860FEF7B7FB1B480068B0FA80F0C0F19A
:1021A0001F0101EB8100184A52F8200008B10120FC
:1021B00000E0002050B900BF202080F31188BFF359
:1021C0004F8FBFF36F8F00BF00BFFEE701EB8102AF
:1021D0000D4B03EB820042685268426000F1080236
:1021E0004368934202D14268526842604268D268B2
:1021F000064B1A60FFF728F810BD0000B00100245C
:102200009C01002490010024DC8200247801002439
:102210002DE9F84305460E4690460DB1012000E039
:10222000002050B900BF202080F31188BFF34F8FEA
:10223000BFF36F8F00BF00BFFEE70EB9002701E0BC
:1022400005FB06F707F15000FFF628FE04464CB1E7
:10225000A14609F1500943464A46314628460094B2
:10226000FFF79EFB2046BDE8F88300002DE9FF4301
:1022700083B0064688461D464FF00009344654B9DF
:1022800000BF202080F31188BFF34F8FBFF36F8F03
:1022900000BF00BFFEE7B8F1000F01D1206C08B904
:1022A000012000E0002050B900BF202080F31188F9
:1022B000BFF34F8FBFF36F8F00BF00BFFEE7022D4C
:1022C00002D1E06B012801D1012000E0002050B9CB
:1022D00000BF202080F31188BFF34F8FBFF36F8FB3
:1022E00000BF00BFFEE700F03BFA08B9059808B947
:1022F000012000E0002050B900BF202080F31188A9
:10230000BFF34F8FBFF36F8F00BF00BFFEE700BF6B
:10231000FFF612FFA06BE16B884201D3022D28D19A
:102320002A4641462046FFF610FC0746606A08B977
:10233000012000E0002068B904F1240000F766F9EC
:1023400088B14FF0805032490860BFF34F8FBFF320
:102350006F8F08E03FB14FF080502D490860BFF308
:102360004F8FBFF36F8FFFF611FF012007B0BDE85D
:10237000F083059818B9FFF609FF0020F6E7B9F1D8
:10238000000F04D101A8FFF757FE4FF00109FFF637
:10239000FDFEFFF7EBFEFFF6CFFE94F94400401C74
:1023A00010B9002084F8440094F94500401C10B98D
:1023B000002084F84500FFF6E9FE05A901A800F019
:1023C00059F9F0B92046FFF654FCA0B104F1100011
:1023D0000599FFF743FE2046FFF7A3FC00F762F9DB
:1023E000002895D14FF0805009490860BFF34F8F06
:1023F000BFF36F8F8CE72046FFF793FC00F752F98D
:1024000086E72046FFF78DFC00F74CF90020ADE78A
:1024100004ED00E02DE9F05F07468A4690461E462F
:102420003C4654B900BF202080F31188BFF34F8F82
:10243000BFF36F8F00BF00BFFEE7BAF1000F01D1FD
:10244000206C08B9012000E0002050B900BF202016
:1024500080F31188BFF34F8FBFF36F8F00BF00BFB2
:10246000FEE7022E02D1E06B012801D1012000E03D
:10247000002050B900BF202080F31188BFF34F8F98
:10248000BFF36F8F00BF00BFFEE7FFF773FD00BF14
:102490002021EFF3118081F31188BFF34F8FBFF339
:1024A0006F8F00BF0546A06BE16B884201D3022EFF
:1024B00023D194F945B0324651462046FFF645FBFC
:1024C0000BF1010088B9606A08B9012000E0002022
:1024D00080B904F1240000F799F858B1B8F1000F61
:1024E00008D00120C8F8000004E00BF1010040B260
:1024F00084F845004FF0010901E04FF0000900BFEA
:1025000085F3118800BF4846BDE8F09F2DE9F741EB
:1025100083B005460E464FF000082C4654B900BF64
:10252000202080F31188BFF34F8FBFF36F8F00BF60
:1025300000BFFEE70EB9206C08B9012000E00020C2
:1025400050B900BF202080F31188BFF34F8FBFF335
:102550006F8F00BF00BFFEE700F002F908B90598D1
:1025600008B9012000E0002050B900BF202080F30E
:102570001188BFF34F8FBFF36F8F00BF00BFFEE71F
:1025800000BFFFF6D9FDA76BF7B131462046FFF635
:10259000C7FA781EA063206908B9012000E0002076
:1025A00060B904F1100000F731F838B14FF08050F5
:1025B0002F490860BFF34F8FBFF36F8FFFF6E6FD23
:1025C000012006B0BDE8F081059818B9FFF6DEFDE0
:1025D0000020F6E7B8F1000F04D101A8FFF72CFDA9
:1025E0004FF00108FFF6D2FDFFF7C0FDFFF6A4FD96
:1025F00094F94400401C10B9002084F8440094F978
:102600004500401C10B9002084F84500FFF6BEFDCF
:1026100005A901A800F02EF8F0B92046FFF61CFB32
:10262000A0B104F124000599FFF718FD2046FFF73B
:1026300078FB00F737F80028A3D14FF080500C4901
:102640000860BFF34F8FBFF36F8F9AE72046FFF705
:1026500068FB00F727F894E72046FFF762FB00F7D6
:1026600021F82046FFF6F8FA00288AD00020A8E7D3
:1026700004ED00E070B505460C4655B900BF2020BA
:1026800080F31188BFF34F8FBFF36F8F00BF00BF80
:10269000FEE754B900BF202080F31188BFF34F8FAD
:1026A000BFF36F8F00BF00BFFEE7FFF645FD124886
:1026B00002686868131A2068401C08B9002617E0F1
:1026C0000E4928680968884204D06868904201D899
:1026D00001260DE02068984207D92068C01A2060C2
:1026E0002846FFF7A9FC002602E000202060012612
:1026F000FFF64CFD304670BD8C010024A001002483
:102700002DE9FF4F85B0804689461746DDE912ABBB
:10271000B800FFF6C3FB064656B16020FFF6BEFBCD
:1027200004460CB1266304E03046FFF64DFD00E0A0
:1027300000247CB10020CDE900ABCDE902403A464F
:1027400049464046089BFFF740F92046FFF7A2F8AC
:10275000012501E04FF0FF35284609B0BDE8F08FB4
:102760000549096809B9012005E00449096809B962
:10277000022000E00020704794010024B0010024F2
:1027800001490868704700008C01002470B5FFF70C
:10279000F1FB002501480468204670BD8C0100242F
:1027A0002DE9F0414FF000084748006800287CD12F
:1027B00046480068451C4548056015BB444800680C
:1027C000006808B9012000E0002050B900BF2020B7
:1027D00080F31188BFF34F8FBFF36F8F00BF00BF2F
:1027E000FEE73B4807683B480068394908603948BC
:1027F000076039480068401C37490860FFF61EFB37
:1028000000BF3648006885423CD300BF30480068AE
:10281000006808B9012000E0002020B14FF0FF302F
:102820002E4908602DE02A480068C068C4686668C0
:10283000B54202D22948066023E0201DFFF630FC95
:10284000A06A18B104F11800FFF62AFC94F82C10C5
:102850000120884022490968084321490860E16A4B
:1028600001EB81011F4A02EB8100211DFFF658FC9C
:102870001D49E06A0968C96A8842C7D34FF0010858
:10288000C4E700BF18480068C06A00EB8000154923
:1028900051F82000012801D94FF0010813480068C1
:1028A00008B9FFF611FC07E0FFE710480068401C7C
:1028B0000E490860FFF608FC0D48006808B14FF0AB
:1028C00001084046BDE8F081B00100248C010024DD
:1028D0007C01002480010024A0010024A801002420
:1028E00090010024DC820024780100249801002457
:1028F0009C01002470B505462C460026002D55D0BD
:102900002B480068844201D1012000E0002050B92A
:1029100000BF202080F31188BFF34F8FBFF36F8F6C
:1029200000BF00BFFEE7606D50B900BF202080F3FC
:102930001188BFF34F8FBFF36F8F00BF00BFFEE75B
:10294000606D401E6065216DE06A88422ED0606D2A
:1029500060BB201DFFF6A4FB78B9E06A00EB8000A5
:10296000144951F8200040B994F82C1001208840F7
:1029700011490968814310480160206DE062E06AF6
:10298000C0F12000A06194F82C10012088400A4971
:102990000968084308490860E16A01EB8101054ABA
:1029A00002EB8100211DFFF6BBFB0126304670BD06
:1029B00078010024DC820024900100241028405873
:1029C0007088A0B8010000000200000004000000B0
:1029D00006000000080000000A0000000C000000D3
:1029E00010000000200000004000000080000000F7
:0429F00000010000E2
:040000050800029954
:00000001FF
